:100000000C9434000C9451000C9451000C94510049
:100010000C9451000C9451000C9451000C9451001C
:100020000C9451000C9451000C9451000C9451000C
:100030000C9451000C9451000C9451000C945100FC
:100040000C9451000C9451000C9451000C945100EC
:100050000C9451000C9451000C9451000C945100DC
:100060000C9451000C94510011241FBECFEFD8E026
:10007000DEBFCDBF12E0A0E0B1E0E4E4FEE002C0EC
:1000800005900D92AC30B107D9F722E0ACE0B2E0B8
:1000900001C01D92AE31B207E1F70E94D2020C946A
:1000A00020070C940000CF93DF9300D0CDB7DEB7CC
:1000B00089839A830E94DA0189819A810E948B0246
:1000C00088EC90E02FEF31EE44E02150304040408A
:1000D000E1F700C000000197A9F70F900F90DF91A2
:1000E000CF9108958F929F92AF92BF92CF92DF925D
:1000F000EF92FF920F931F93CF93DF93CDB7DEB7AD
:1001000063970FB6F894DEBF0FBECDBF6C01FC0144
:1001100001900020E9F731978F01081B190B01317D
:100120001105A0F463960FB6F894DEBF0FBECDBFE5
:10013000DF91CF911F910F91FF90EF90DF90CF90C3
:10014000BF90AF909F908F900C945300198A4801F4
:100150002FE0820E911CE12CF12C5E0131E1A30E07
:10016000B11CC701FE013196EA8BFB8B20E28017A0
:10017000910724F4D601A80FB91F2C912193019661
:10018000EA15FB0599F70E94DA018A899B890E948A
:100190008B024FEF85EA9EE0415080409040E1F7AE
:1001A00000C000002FEFE21AF20A8E149F04CCF672
:1001B000005F1F4F8CE291E0089F9001099F300D76
:1001C000189F300D112480E090E021324EE4340776
:1001D00024F480E29EE4821B930B64E670E00E94AC
:1001E0003B0380E090E06817790799F463960FB6B7
:1001F000F894DEBF0FBECDBFDF91CF911F910F915D
:10020000FF90EF90DF90CF90BF90AF909F908F9036
:1002100008952FEF31EE44E0215030404040E1F7A7
:1002200000C000000196DFCF89E390E30C94B60391
:10023000CF93DF9300D0CDB7DEB7809114019091BA
:1002400015012091160130911701820F931F209103
:10025000180130911901820F931F20911A013091DA
:100260001B01820F931F20911C0130911D01AC01D5
:10027000420F531F49835A830E94B10369817A81D7
:100280000E943B03AC01E4E1F1E080E090E09C01DE
:1002900060817181260F371F421753073CF0329659
:1002A000019685309105A1F780E090E00F900F90C6
:1002B000DF91CF9108959BB19F708295807F892BAC
:1002C0008BB95998599A59988FEA94E00197F1F7A8
:1002D00000C000000895CF93DF930F92CDB7DEB733
:1002E0008983611561F0589A898182958F700E9487
:1002F0005B0189810F90DF91CF910C945B0158983D
:10030000F3CF60E00C946B0161E00C946B018AB157
:10031000836F8AB98BB18C7F8BB92FEF80E792E026
:10032000215080409040E1F700C0000083E00E942F
:100330005B018FE090E40197F1F700C0000083E0DB
:100340000E945B018FE090E40197F1F700C000008C
:1003500083E00E945B018FE090E40197F1F700C019
:10036000000082E00E945B018FE090E40197F1F7CA
:1003700000C0000088E20E9481018FE090E40197B4
:10038000F1F700C0000084E080931D028CE00C9423
:10039000810180911D02982F946090931D028C60C2
:1003A0000C94810180911D028B7F80931D028860D7
:1003B0000C94810181E00E9481018FE39FE101970C
:1003C000F1F700C00000089582E00E9481018FE3F0
:1003D0009FE10197F1F700C00000089580911D0290
:1003E000982F916090931D0289600C9481018091F7
:1003F0001D028E7F80931D0288600C948101809184
:100400001D02982F926090931D028A600C948101C6
:1004100080911D028D7F80931D0288600C94810164
:1004200088E10C9481018CE10C94810180911D0282
:10043000982F926090931D0286600C9481018091A8
:100440001D028D7F80931D0284600C948101809138
:100450001D02982F916090931D0285600C9481017C
:1004600080911D028E7F80931D0284600C94810117
:100470000F931F93CF93DF93880F880F880F887394
:100480008064EB010E9481018E01085F1F4F8991FA
:100490000E948401C017D107D1F780E8DF91CF9186
:1004A0001F910F910C948101E62FF0E0EE5DFE4F5D
:1004B0009081890F80680C948101FC01DC012C91F2
:1004C000211102C010820895233C61F4DC011196D1
:1004D0003C91343AA1F040F43538A1F03639C1F0FE
:1004E000343899F0019609C0353A29F0363BD1F7F6
:1004F000029626EF02C0029625EE2193DFCF0296E8
:1005000024EEFBCF029625ECF8CF029624ECF5CF33
:10051000029626EDF2CFCF93DF9300D000D0CDB777
:10052000DEB789839A830E945D0229812B833A81F9
:100530003C83EB81FC818081811107C00F900F907B
:100540000F900F90DF91CF910895EB81FC81319650
:10055000EB83FC830E948401ECCFEF92FF920F9318
:100560001F93CF93DF93CDB7DEB78E01075F1F4F89
:10057000F801E190F1908F01C7010E945D0298019E
:10058000A70161E170E08CE092E00E94BF038CE083
:1005900092E00E948B02DF91CF911F910F91FF900B
:1005A000EF9008950E9487010E94140186E291E075
:1005B0000E948B022FEF87EA91E621508040904005
:1005C000E1F700C0000000E010E05FEFF52EEF2C37
:1005D0000E941801EC01E816F906D1F38330910569
:1005E000C9F18430910509F441C08130910591F041
:1005F0000297E1F00E94B10363E070E00E943B03C8
:10060000FC01EE0FFF1FE25FFE4F808191810E948F
:1006100053001CC00E94B10362E070E00E943B03E3
:10062000FC01EE0FFF1FE65FFE4FEFCF0E94B1030C
:10063000BE010E943B03880F991F8A5F9E4FFC01F9
:100640008081918100FDE3CF0E9472000F5F1F4FF8
:100650007E01BECF0E94B10362E070E00E943B03C6
:10066000FC01EE0FFF1FEE5FFE4FCFCF8091000128
:1006700090910101CCCF97FB072E16F4009407D080
:1006800077FD09D00E944F0307FC05D03EF49095FA
:1006900081959F4F0895709561957F4F0895AA1B8E
:1006A000BB1B51E107C0AA1FBB1FA617B70710F05D
:1006B000A61BB70B881F991F5A95A9F7809590958F
:1006C000BC01CD010895AAE0B0E0E9E6F3E00C94A6
:1006D000C80689879A87FC01608171818281938134
:1006E00000977040604021F464E279ED8BE597E07B
:1006F0002DE133EF41E050E00E94860629833A83E2
:100700004B835C839B01AC01A7EAB1E40E94A50680
:100710006D837E838F839887ACEEB4EF29813A8115
:100720004B815C810E94B3062D813E814F815885AB
:10073000260F371F481F591FC901DA01B7FF03C031
:100740000197A109B048E985FA8580839183A28346
:10075000B3839F772A96E2E00C94E4060E94630339
:1007600008958EE191E00E946303089580931E0135
:1007700090931F0110922001109221010895AEE084
:10078000B0E0E5ECF3E00C94C6068C01CA0146E04B
:100790004C8309831A83FB016130704810F0E0E05C
:1007A000F0E83197ED83FE83A901BC01CE010196EB
:1007B0000E94EC034D815E8157FD0AC02F81388570
:1007C000421753070CF49A01020F131FF80110820D
:1007D0002E96E4E00C94E206ACE0B0E0E2EFF3E049
:1007E0000C94BB065C016B017A01FC011682178236
:1007F000838181FFD3C12AE0522EF5012381F601C6
:1008000023FD859123FF81916F01811509F42CC18E
:10081000853239F423FD959123FF91916F01953233
:1008200029F4B50190E00E94E705E7CF30E0712C94
:1008300000E010E0103210F59B32C9F050F4903215
:10084000B9F09332C9F09E3261F516FD0DC1106406
:1008500005C09D3279F0903399F41160F60123FDC3
:10086000959123FF91916F019111E4CF23C0126004
:100870001460F4CF1860F2CF1061F0CF17FD1AC0EA
:1008800080ED890F8A30F8F616FF05C0759C800D43
:100890001124782EE3CF059D800D1124082F1062BE
:1008A000DDCF9C3611F41068D9CF9C3409F440C0D8
:1008B0009836A1F2892F8F7D85548330D8F19336F5
:1008C00009F45FC0933709F46AC0933509F476C020
:1008D000943619F0993609F0A2C0F70117FF98C0B5
:1008E00061917191819191917F011F7697FF03C072
:1008F0000E949D0610682AE030E04E014FEF841AF6
:10090000940AA4010E942806682E681816FFD2C017
:10091000812F8E7F671408F0CCC014FF1DC112FD1B
:1009200011C11E7E972C812F867809F4CEC00FC18D
:1009300031E094CF311509F1F8E0EF0EF11C8FE3AF
:10094000898391E0692E712C4E018FEF881A980AE5
:100950001F7713FD04C06016710408F43FC06114D2
:10096000710409F042C0011509F447CFB50180E2D6
:1009700090E00E94E7050150F6CF44E0E40EF11C40
:10098000DECFF70180818983F2E0EF0EF11C81E078
:10099000682E712C4E014FEF841A940AD9CFF701BB
:1009A000819091907F01672D70E016FD02C06FEF7E
:1009B0007FEFC4010E94DC053C01CACFF7018190A2
:1009C00091907F01672D70E016FD02C06FEF7FEF01
:1009D000C4010E94D1053C011068BBCFB50180E283
:1009E00090E00E94E7050150B6CFF40117FD859114
:1009F00017FF81914F01B50190E00E94E70581E06A
:100A0000011101C080E0081BF1E06F1A7108A7CF47
:100A100061917191872F880F880B982F65CF95373B
:100A2000C9F41F7E1C872AE030E0FC85F7FF3BC03D
:100A3000F70161917191819191917F014E014FEF89
:100A4000841A940AA4010E942806682E68181C853E
:100A50001F775CCF812F897F8C87903799F058F46E
:100A60009835B9F09F36E1F0F501868197812C9693
:100A7000EFE00C94D7069837B9F714FD06C020E1D3
:100A800030E0D3CF9C8590619C87EC85E460EC8757
:100A9000F6CF14FF02C016601C8720E132E0C5CFFC
:100AA00028E030E0C2CFF7016191719180E090E0E1
:100AB000C4CF182F962C14FF36CFFE01E60DF11D82
:100AC0008081803309F041C0197E13FD0EC010FFF4
:100AD0004FC0762C901618F4700E7918902E802F37
:100AE0008919091508F480E0980E901608F042C0A4
:100AF000091914FF41C0B50180E390E00E94E705A9
:100B000012FF09C088E590E011FD02C088E790E07F
:100B1000B5010E94E7056714D0F14E018FEF881AE6
:100B2000980A6A94FE013296E60DF11D3F01F30129
:100B300082913F01B50190E00E94E70568147904B5
:100B4000B1F711CF972C182FB8CF12FD02C0939494
:100B5000BCCF93949394B9CF972C182FE4CEB501C2
:100B600080E290E00E94E70583948016C0F3B7CF3F
:100B7000892CFBCF00E0BDCF812F867861F280E227
:100B800011FD8BE217FD8DE2B50190E0C2CFB501FA
:100B900080E390E00E94E7057A94BDCF8FEF9FEF4E
:100BA00066CFFC010590615070400110D8F7809528
:100BB00090958E0F9F1F0895FC0161507040019029
:100BC0000110D8F7809590958E0F9F1F0895A3E090
:100BD000B0E0EDEEF5E00C94C706182F99836A8318
:100BE0007B83DB0113968C9181FD09C01FEFBFEF62
:100BF000B983812F99812396E3E00C94E30682FF69
:100C00001BC0EA81FB812681378184819581281769
:100C1000390754F40190F081E02DCF010196AA81AB
:100C2000BB818D939D931083EA81FB81868197819F
:100C3000019686839783DDCFAA81BB811896ED91BB
:100C4000FD911A97BD01812F0995892B69F3CECFAC
:100C5000FA01AA27283051F1203181F1E8946F93ED
:100C60006E7F6E5F7F4F8F4F9F4FAF4FB1E03ED093
:100C7000B4E03CD0670F781F891F9A1FA11D680F31
:100C8000791F8A1F911DA11D6A0F711D811D911D64
:100C9000A11D20D009F468943F912AE0269F1124D9
:100CA0003019305D3193DEF6CF010895462F47703D
:100CB000405D4193B3E00FD0C9F7F6CF462F4F7098
:100CC000405D4A3318F0495D31FD4052419302D0F6
:100CD000A9F7EACFB4E0A69597958795779567959C
:100CE000BA95C9F700976105710508959B01AC019C
:100CF0000A2E06945795479537952795BA95C9F7C3
:100D0000620F731F841F951FA01D0895052E97FB6A
:100D10001EF400940E949D0657FD07D00E94FE0617
:100D200007FC03D04EF40C949D06509540953095E9
:100D300021953F4F4F4F5F4F089590958095709547
:100D400061957F4F8F4F9F4F08950E94EF06A59F9B
:100D5000900DB49F900DA49F800D911D11240895B6
:100D6000B7FF0C94A5060E94A506821B930B08955D
:100D70002F923F924F925F926F927F928F929F92AB
:100D8000AF92BF92CF92DF92EF92FF920F931F9399
:100D9000CF93DF93CDB7DEB7CA1BDB0B0FB6F8944A
:100DA000DEBF0FBECDBF09942A88398848885F848A
:100DB0006E847D848C849B84AA84B984C884DF80FB
:100DC000EE80FD800C811B81AA81B981CE0FD11DDF
:100DD0000FB6F894DEBF0FBECDBFED010895A29F00
:100DE000B001B39FC001A39F700D811D1124911DFF
:100DF000B29F700D811D1124911D0895A1E21A2E3C
:100E0000AA1BBB1BFD010DC0AA1FBB1FEE1FFF1FAE
:100E1000A217B307E407F50720F0A21BB30BE40BFE
:100E2000F50B661F771F881F991F1A9469F7609545
:100E30007095809590959B01AC01BD01CF010895FF
:040E4000F894FFCF54
:100E440032014801600175018D01A601B701D1018C
:100E5400E301F401050003000200040001000100A5
:100E640000000040145452656B6C616D7461766CC3
:100E7400610053796E6173206861723F20494F5459
:100E84002052656B6C616D004D7973746572696590
:100E9400723F2052696E67204C616E6762656E0016
:100EA4004C616E6762656E20666978617220626962
:100EB4006666656E004C61742050657474657220BA
:100EC40062796767612061742064696700427967A9
:100ED40067612073766172743F2052696E67205097
:100EE4006574746572004B6F702070616A20686F5E
:100EF4007320416E6B6100536B796E646120696E7F
:100F04006E616E204D6F7274656E2061746572211E
:100F1400004B6F702062696C20686F7320486172A7
:100F2400727900456E20676F642062696C61666641
:100F34006172210048656465726C69676520486167
:0C0F4400727279732042696C61720000C7
:00000001FF
